:1000000012C019C018C017C016C015C014C013C044
:1000100012C011C010C00FC00EC00DC00CC00BC06C
:100020000AC009C008C011241FBECFE5D4E0DEBF5E
:10003000CDBF02D048C0E4CF2CD034D031D03FD097
:100040002FE986E891E0215080409040E1F700C020
:10005000000028D02FE986E891E0215080409040B0
:10006000E1F700C000002DD019D02FE986E891E01B
:10007000215080409040E1F700C0000013D02FE9EC
:1000800086E891E0215080409040E1F700C00000F8
:10009000D5CFA49AA59AA39AA29A0895AD9A089545
:1000A000AC9A089585B3807C85BB85B3807E85BB83
:1000B00085B3807F85BB85B3887F85BB0895AB9A68
:0A00C0000895AA9A0895F894FFCF5E
:00000001FF
